{
  "_format": "hh-sol-artifact-1",
  "contractName": "HondaFacet",
  "sourceName": "contracts/facets/HondaFacet.sol",
  "abi": [
    {
      "inputs": [],
      "stateMutability": "nonpayable",
      "type": "constructor"
    },
    {
      "inputs": [],
      "name": "carPower",
      "outputs": [
        {
          "internalType": "uint256",
          "name": "",
          "type": "uint256"
        }
      ],
      "stateMutability": "pure",
      "type": "function"
    },
    {
      "inputs": [],
      "name": "companyName",
      "outputs": [
        {
          "internalType": "string",
          "name": "",
          "type": "string"
        }
      ],
      "stateMutability": "view",
      "type": "function"
    },
    {
      "inputs": [
        {
          "internalType": "string",
          "name": "newCompany",
          "type": "string"
        }
      ],
      "name": "setCompanyName",
      "outputs": [],
      "stateMutability": "nonpayable",
      "type": "function"
    }
  ],
  "bytecode": "0x60806040526040518060400160405280600581526020017f486f6e64610000000000000000000000000000000000000000000000000000008152506000908051906020019061004f9291906100ae565b5034801561005c57600080fd5b506040518060400160405280600781526020017f486f6e6461763200000000000000000000000000000000000000000000000000815250600090805190602001906100a89291906100ae565b506101b2565b8280546100ba90610151565b90600052602060002090601f0160209004810192826100dc5760008555610123565b82601f106100f557805160ff1916838001178555610123565b82800160010185558215610123579182015b82811115610122578251825591602001919060010190610107565b5b5090506101309190610134565b5090565b5b8082111561014d576000816000905550600101610135565b5090565b6000600282049050600182168061016957607f821691505b6020821081141561017d5761017c610183565b5b50919050565b7f4e487b7100000000000000000000000000000000000000000000000000000000600052602260045260246000fd5b6104ba806101c16000396000f3fe608060405234801561001057600080fd5b50600436106100415760003560e01c8063b7cd634614610046578063eb3313f014610064578063f5ec2eed14610080575b600080fd5b61004e61009e565b60405161005b91906102c5565b60405180910390f35b61007e60048036038101906100799190610212565b6100a8565b005b6100886100c2565b60405161009591906102a3565b60405180910390f35b60006103e8905090565b80600090805190602001906100be9291906100ff565b5050565b60606040518060400160405280600381526020017f58595a0000000000000000000000000000000000000000000000000000000000815250905090565b82805461010b9061039e565b90600052602060002090601f01602090048101928261012d5760008555610174565b82601f1061014657805160ff1916838001178555610174565b82800160010185558215610174579182015b82811115610173578251825591602001919060010190610158565b5b5090506101819190610185565b5090565b5b8082111561019e576000816000905550600101610186565b5090565b60006101b56101b084610305565b6102e0565b9050828152602081018484840111156101d1576101d0610464565b5b6101dc84828561035c565b509392505050565b600082601f8301126101f9576101f861045f565b5b81356102098482602086016101a2565b91505092915050565b6000602082840312156102285761022761046e565b5b600082013567ffffffffffffffff81111561024657610245610469565b5b610252848285016101e4565b91505092915050565b600061026682610336565b6102708185610341565b935061028081856020860161036b565b61028981610473565b840191505092915050565b61029d81610352565b82525050565b600060208201905081810360008301526102bd818461025b565b905092915050565b60006020820190506102da6000830184610294565b92915050565b60006102ea6102fb565b90506102f682826103d0565b919050565b6000604051905090565b600067ffffffffffffffff8211156103205761031f610430565b5b61032982610473565b9050602081019050919050565b600081519050919050565b600082825260208201905092915050565b6000819050919050565b82818337600083830152505050565b60005b8381101561038957808201518184015260208101905061036e565b83811115610398576000848401525b50505050565b600060028204905060018216806103b657607f821691505b602082108114156103ca576103c9610401565b5b50919050565b6103d982610473565b810181811067ffffffffffffffff821117156103f8576103f7610430565b5b80604052505050565b7f4e487b7100000000000000000000000000000000000000000000000000000000600052602260045260246000fd5b7f4e487b7100000000000000000000000000000000000000000000000000000000600052604160045260246000fd5b600080fd5b600080fd5b600080fd5b600080fd5b6000601f19601f830116905091905056fea2646970667358221220d78cb9584e9f8ba70e68da4fc39428545663824a210bab1feca6077c74c56eb264736f6c63430008060033",
  "linkReferences": {},
  "deployedLinkReferences": {}
}